:100000000C9434010C9446010C9446010C94460166
:100010000C9446010C9446010C9446010C94460144
:100020000C9446010C9446010C9456020C94460123
:100030000C9446010C947A020C9446010C944601EF
:100040000C9446010C9446010C9446010C94460114
:100050000C9446010C9446010C9446010C94460104
:100060000C9446010C944601FF00EE00E800E3000A
:10007000E000DD00DA00D800D600D400D200D000C5
:10008000CF00CD00CC00CA00C900C800C600C50022
:10009000C400C300C200C100C000BF00BE00BD005C
:1000A000BC00BB00BA00B900B800B700B600B5008C
:1000B000B400B400B300B200B100B000B000AF00B3
:1000C000AE00AD00AD00AC00AB00AA00AA00A900D4
:1000D000A800A800A700A600A600A500A400A400F0
:1000E000A300A200A200A100A000A0009F009E000B
:1000F0009E009D009D009C009B009B009A009A0022
:100100009900980098009700970096009500950038
:10011000940094009300930092009100910090004D
:1001200090008F008F008E008D008D008C008C0061
:100130008B008B008A008A00890088008800870075
:100140008700860086008500850084008400830087
:100150008300820081008100800080007F007F009A
:100160007E007E007D007D007C007C007B007B00AB
:100170007A007900790078007800770077007600BF
:1001800076007500750074007400730072007200D0
:1001900071007100700070006F006F006E006E00E3
:1001A0006D006C006C006B006B006A006A006900F7
:1001B000690068006700670066006600650065000A
:1001C0006400630063006200620061006000600020
:1001D0005F005F005E005D005D005C005C005B0036
:1001E0005A005A005900590058005700570056004D
:1001F0005500550054005300530052005100510067
:1002000050004F004E004E004D004C004B004B0084
:100210004A004900480048004700460045004400A5
:10022000440043004200410040003F003E003D00CA
:100230003C003B003A0039003800370036003500FA
:1002400034003200310030002E002D002C002A0036
:10025000280027002500230021001F001C00190092
:10026000160011000B00000011241FBECFEFD8E0D4
:10027000DEBFCDBF11E0A0E0B1E001C01D92A7300C
:10028000B107E1F70E9434020C949E020C94000026
:10029000DF93CF9300D0CDB7DEB79A83898389816E
:1002A0009A819093030180930201809102019091C1
:1002B0000301892B31F481E090E090930301809356
:1002C00002010F900F90CF91DF91089520910501C9
:1002D00030910601C901089580910401843030F401
:1002E000823020F5813009F059C004C0843009F013
:1002F00055C038C08091810080648093810080E87F
:1003000080938000809382008FEF9FEF909389000D
:10031000809388001092850010928400B09A80919A
:100320006F00816080936F0082E049C080E8809315
:10033000800080938200809181008F7B8093810078
:10034000809186009091870090930601809305012B
:10035000809102019091030190938900809388001D
:1003600084E02DC080918100806480938100809121
:10037000020190910301909389008093880010926C
:1003800085001092840080EC80938000B09A809168
:100390006F00816080936F0083E011C080E88093DC
:1003A000800080938200809181008F7B8093810008
:1003B0008FEF9FEF909389008093880081E0809376
:1003C00004010895EFE6F0E080818E7F8083E1E80C
:1003D000F0E080818064808380E880938000809357
:1003E00082001092040108958FEF9FEF9093060111
:1003F0008093050190930301809302011092040100
:100400000E9431020E940C020E941E02EFE6F0E000
:1004100080818E7F8083089520982898E1E8F0E01D
:1004200080818068808310BE808180648083B59ADB
:10043000EFE6F0E08081806280830895109285006D
:1004400010928400A0E8B0E090E89C93E1E8F0E02E
:10045000808182608083909382008C9180648C93F1
:100460000895219A29980895CF93DF930E94F4016B
:10047000789486E990E00E944801C4EFD1E088E9D1
:100480009AE30E94480188E893E1FE013197F1F771
:100490000197D9F788E893E10E94480188E893E141
:1004A000FE013197F1F70197D9F7E9CF1F920F922B
:1004B0000FB60F9211242F933F934F935F936F9337
:1004C0007F938F939F93AF93BF93EF93FF930E947C
:1004D0006C01FF91EF91BF91AF919F918F917F91AF
:1004E0006F915F914F913F912F910F900FBE0F90A1
:1004F0001F9018951F920F920FB60F9211242F93F1
:100500003F934F935F936F937F938F939F93AF939B
:10051000BF93EF93FF930E94E201FF91EF91BF9190
:10052000AF919F918F917F916F915F914F913F918B
:100530002F910F900FBE0F901F901895F894FFCF3A
:00000001FF
