:100000000C94B4010C94C6010C94C6010C94C60166
:100010000C94C6010C94C6010C94C6010C94C60144
:100020000C94C6010C94C6010C9460030C94C60198
:100030000C94C6010C9484030C94C6010C94C60164
:100040000C94C6010C94C6010C94C6010C94C60114
:100050000C94C6010C94C6010C94C6010C94C60104
:100060000C94C6010C94C601FFFF5BEAA7E49FE075
:1000700063DDA4DA3AD80DD611D43CD285D0E9CECE
:1000800064CDF1CB90CA3EC9F9C7BFC691C56CC457
:1000900050C33CC230C12BC02CBF33BE3FBD51BC8E
:1000A00068BB83BAA3B9C6B8EEB719B747B679B576
:1000B000AEB4E5B320B35DB29DB1DFB024B06BAF99
:1000C000B4AEFFAD4BAD9AACEBAB3DAB91AAE7A99B
:1000D0003EA997A8F1A74DA7AAA608A668A5C8A4F7
:1000E0002AA48DA3F1A257A2BDA124A18CA0F59FA3
:1000F0005F9FCA9E369EA29D0F9D7D9CEC9B5C9B44
:10010000CC9A3D9AAE992099939806987A97EF9653
:100110006496D9955095C6943D94B5932C93A59229
:100120001D92979110918A9004907F8FFA8E758E10
:10013000F08D6C8DE88C658CE18B5E8BDB8A588A48
:10014000D6895489D2885088CE874C87CB864986F9
:10015000C8854785C6844584C4834483C38242825C
:10016000C2814181C1804080C07F3F7FBF7E3E7E93
:10017000BE7D3D7DBC7C3C7CBB7B3A7BB97A387ACA
:10018000B7793579B4783278B0772E77AC762A762D
:10019000A8752575A2741F749B73187394721072DE
:1001A0008B7106718170FC6F766FF06E696EE36D16
:1001B0005B6DD46C4B6CC36B3A6BB06A276A9C69FD
:1001C00011698668FA676D67E0665266C3653465D3
:1001D000A46414648363F1625E62CA613661A160E3
:1001E0000B60745FDC5E435EA95D0F5D735CD65B84
:1001F000385B985AF8595659B3580F586957C25630
:1002000019566F55C35415546653B55201524C518B
:100210009550DC4F214F634EA34DE04C1B4C524B8D
:10022000874AB949E74812483A475D467D459844B0
:10023000AF43C142CD41D440D53FD03EC43DB03C98
:10024000943B6F3A41390738C23670350F349C32CF
:1002500017317B2FC42DEF2BF329C6275C259D2258
:10026000611F591BA5150000FF9A9BEE6F0EC58CF0
:10027000634531262326303F536C89AACFF722509D
:1002800080B4E9215B97D616579BE0266EB7024EE5
:100290009BEA398ADC2E82D62C82D9318AE33D98BA
:1002A000F450AC0A68C62585E545A60769CB2E91B2
:1002B000F458BC2085EA4FB51B81E74DB41B82E999
:1002C00051B82088F058C02991FA62CB349C056E51
:1002D000D73FA8117AE24BB41C85ED55BE268EF6A9
:1002E0005EC52D94FB62C93096FC62C82E93F85D02
:1002F000C12689ED50B31678DA3B9DFD5EBD1D7CAD
:10030000DA3896F350AC0762BD166FC82077CE245A
:1003100079CD2174C61868B80755A2EE3983CC147C
:100320005BA1E5296BACEC2A67A3DD154D82B6E82D
:100330001947749FC8EE133555738EA6BCCFDFECFA
:10034000F6FCFFFFFAF1E5D3BDA2825C31FFC68661
:100350003FEF9734C850CB3998E52045524210B74B
:100360002D6651D0B291550011241FBECFEFD8E0B9
:10037000DEBFCDBF11E0A0E0B1E001C01D92A7300B
:10038000B107E1F70E9442030C94C7030C940000EC
:10039000DF93CF93CDB7DEB728970FB6F894DEBFC3
:1003A0000FBECDBFE82FF0E0EE0FFF1FE859FF4F63
:1003B00085919491A0E0B0E089839A83AB83BC835C
:1003C000609105017091060129813A814B815C8120
:1003D00080E090E00E94A8036D837E838F839887DE
:1003E0008D819E81AF81B885CD01AA27BB279093CF
:1003F0000301809302018091020190910301892BF6
:1004000031F481E090E090930301809302012896FB
:100410000FB6F894DEBF0FBECDBFCF91DF91089528
:10042000DF93CF93CDB7DEB728970FB6F894DEBF32
:100430000FBECDBFE82FF0E0E859FD4F85919491B4
:10044000A0E0B0E089839A83AB83BC83609105010F
:100450007091060129813A814B815C8180E090E0B6
:100460000E94A8036D837E838F8398878D819E81F0
:10047000AF81B885CD01AA27BB2790930301809354
:1004800002018091020190910301892B31F481E0F6
:1004900090E0909303018093020128960FB6F894A0
:1004A000DEBF0FBECDBFCF91DF9108952091050132
:1004B00030910601C901089580910401843030F41F
:1004C000823020F5813009F059C004C0843009F031
:1004D00055C038C08091810080648093810080E89D
:1004E00080938000809382008FEF9FEF909389002C
:1004F000809388001092850010928400B09A8091B9
:100500006F00816080936F0082E049C080E8809333
:10051000800080938200809181008F7B8093810096
:100520008091860090918700909306018093050149
:10053000809102019091030190938900809388003B
:1005400084E02DC08091810080648093810080913F
:10055000020190910301909389008093880010928A
:1005600085001092840080EC80938000B09A809186
:100570006F00816080936F0083E011C080E88093FA
:10058000800080938200809181008F7B8093810026
:100590008FEF9FEF909389008093880081E0809394
:1005A00004010895EFE6F0E080818E7F8083E1E82A
:1005B000F0E080818064808380E880938000809375
:1005C00082001092040108958FEF9FEF909306012F
:1005D000809305019093030180930201109204011E
:1005E0000E9421030E94FC020E940E03EFE6F0E04D
:1005F00080818E7F8083089520982898E1E8F0E03C
:1006000080818068808310BE808180648083B59AF9
:10061000EFE6F0E08081806280830895109285008B
:1006200010928400A0E8B0E090E89C93E1E8F0E04C
:10063000808182608083909382008C9180648C930F
:100640000895219A29980895ECE7F0E0808180666A
:100650008083EAE7F0E08081876880830895909145
:100660007C008F70907F892B80937C0080917A0032
:10067000806480937A0080917A0086FDFCCF80911F
:1006800079000895CF93DF930E94E40278948091DB
:100690007C00806680937C0080917A0087688093DC
:1006A0007A00C4EFD1E080E00E942F030E94C801CD
:1006B0008CE291E0FE013197F1F70197D9F7F3CF82
:1006C0001F920F920FB60F9211242F933F934F93C7
:1006D0005F936F937F938F939F93AF93BF93EF93AA
:1006E000FF930E945C02FF91EF91BF91AF919F91A8
:1006F0008F917F916F915F914F913F912F910F90CB
:100700000FBE0F901F9018951F920F920FB60F9269
:1007100011242F933F934F935F936F937F938F9306
:100720009F93AF93BF93EF93FF930E94D202FF91E9
:10073000EF91BF91AF919F918F917F916F915F9159
:100740004F913F912F910F900FBE0F901F901895D2
:10075000629FD001739FF001829FE00DF11D649FA5
:10076000E00DF11D929FF00D839FF00D749FF00D31
:10077000659FF00D9927729FB00DE11DF91F639FD2
:10078000B00DE11DF91FBD01CF0111240895F894AA
:02079000FFCF99
:00000001FF
