:100000000C9434010C9446010C9446010C94460166
:100010000C9446010C9446010C9446010C94460144
:100020000C9446010C9446010C94F3020C94460186
:100030000C9446010C9417030C9446010C94460151
:100040000C9446010C9446010C9446010C94460114
:100050000C9446010C9446010C9446010C94460104
:100060000C9446010C944601FFFF5BEAA7E49FE075
:1000700063DDA4DA3AD80DD611D43CD285D0E9CECE
:1000800064CDF1CB90CA3EC9F9C7BFC691C56CC457
:1000900050C33CC230C12BC02CBF33BE3FBD51BC8E
:1000A00068BB83BAA3B9C6B8EEB719B747B679B576
:1000B000AEB4E5B320B35DB29DB1DFB024B06BAF99
:1000C000B4AEFFAD4BAD9AACEBAB3DAB91AAE7A99B
:1000D0003EA997A8F1A74DA7AAA608A668A5C8A4F7
:1000E0002AA48DA3F1A257A2BDA124A18CA0F59FA3
:1000F0005F9FCA9E369EA29D0F9D7D9CEC9B5C9B44
:10010000CC9A3D9AAE992099939806987A97EF9653
:100110006496D9955095C6943D94B5932C93A59229
:100120001D92979110918A9004907F8FFA8E758E10
:10013000F08D6C8DE88C658CE18B5E8BDB8A588A48
:10014000D6895489D2885088CE874C87CB864986F9
:10015000C8854785C6844584C4834483C38242825C
:10016000C2814181C1804080C07F3F7FBF7E3E7E93
:10017000BE7D3D7DBC7C3C7CBB7B3A7BB97A387ACA
:10018000B7793579B4783278B0772E77AC762A762D
:10019000A8752575A2741F749B73187394721072DE
:1001A0008B7106718170FC6F766FF06E696EE36D16
:1001B0005B6DD46C4B6CC36B3A6BB06A276A9C69FD
:1001C00011698668FA676D67E0665266C3653465D3
:1001D000A46414648363F1625E62CA613661A160E3
:1001E0000B60745FDC5E435EA95D0F5D735CD65B84
:1001F000385B985AF8595659B3580F586957C25630
:1002000019566F55C35415546653B55201524C518B
:100210009550DC4F214F634EA34DE04C1B4C524B8D
:10022000874AB949E74812483A475D467D459844B0
:10023000AF43C142CD41D440D53FD03EC43DB03C98
:10024000943B6F3A41390738C23670350F349C32CF
:1002500017317B2FC42DEF2BF329C6275C259D2258
:10026000611F591B0000000011241FBECFEFD8E012
:10027000DEBFCDBF11E0A0E0B1E001C01D92A9300A
:10028000B107E1F70E94CA020C947C030C940000B1
:100290001F93DF93CF9300D0CDB7DEB7162F90E03A
:1002A000880F991FFC01E859FF4F659174912091C7
:1002B00005013091060180E090E040E050E00E94AE
:1002C0003B03BC01882799277A83698389819A81B6
:1002D000892B21F481E090E09A838983113019F011
:1002E000123071F407C089819A819093080180933C
:1002F000070106C089819A819093030180930201CE
:100300000F900F90CF91DF911F9108951F93162F9B
:10031000873E08F086EE282F30E040E050E0CA012A
:10032000B9010E943B032FEF30E040E050E00E9413
:100330003B0324EA3EEC40E050E00E945A03822F47
:10034000612F0E9448011F9108952091050130916D
:100350000601822F932F089580910401843030F498
:10036000823078F5813009F06DC004C0843009F026
:1003700069C03EC0E1E8F0E080818064808380EA6B
:100380008093800080EC809382008FEF9FEF9093AA
:1003900089008093880090938B0080938A0010924C
:1003A000850010928400E6E3F0E080818160808324
:1003B000EFE6F0E080818160808382E08093040139
:1003C000089580EA8093800080EC80938200E1E8C9
:1003D000F0E080818F7B8083809186009091870000
:1003E000909306018093050184E0809304010895B1
:1003F000E1E8F0E080818064808380910701909142
:100400000801909389008093880080910201909167
:10041000030190938B0080938A00109285001092C4
:10042000840080EF80938000E6E3F0E080818160CB
:100430008083EFE6F0E080818160808383E08093B9
:100440000401089580EA8093800080EC809382000C
:10045000E1E8F0E080818F7B80838FEF9FEF9093C6
:1004600089008093880090938B0080938A0081E0BC
:10047000809304010895EFE6F0E080818E7F808311
:10048000E1E8F0E080818064808380EA80938000EE
:1004900080EC809382001092040108958FEF9FEF0B
:1004A00090930601809305019093080180930701C2
:1004B0009093030180930201109204010E949C0218
:1004C0000E946A020E948802EFE6F0E080818E7F3F
:1004D00080830895E4E2F0E080818E7F8083E5E20E
:1004E000F0E080818E7F8083E1E8F0E080818068A9
:1004F000808310BE808180648083E6E3F0E08081A9
:1005000080628083EFE6F0E08081806280830895DE
:100510001092850010928400A0E8B0E080EA8C93ED
:10052000E1E8F0E080818260808380EC809382004B
:100530008C9180658C930895A4E2B0E08C918260E8
:100540008C93E5E2F0E080818D7F80838C918460E4
:100550008C9380818B7F80830895ECE7F0E080812D
:1005600080668083EAE7F0E0808187688083089571
:10057000ECE7F0E090818F70907F892B8083EAE731
:10058000F0E0808180648083808186FDFDCF809152
:1005900079000895FF920F931F93CF93DF930E94EA
:1005A0004E0278940E94AD020F2EF6EEFF2EF02D33
:1005B0000CE211E0C4EFD1E080E00E94B80261E0FB
:1005C0000E94860180E00E94B8029F2D981B892F0F
:1005D00062E00E9486019801CE010197F1F7215057
:1005E0003040D1F7E9CF1F920F920FB60F9211242E
:1005F0002F933F934F935F936F937F938F939F932B
:10060000AF93BF93EF93FF930E94AC01FF91EF91E3
:10061000BF91AF919F918F917F916F915F914F911A
:100620003F912F910F900FBE0F901F9018951F9222
:100630000F920FB60F9211242F933F934F935F9316
:100640006F937F938F939F93AF93BF93EF93FF939A
:100650000E943B02FF91EF91BF91AF919F918F91CB
:100660007F916F915F914F913F912F910F900FBEAE
:100670000F901F901895629FD001739FF001829F89
:10068000E00DF11D649FE00DF11D929FF00D839F21
:10069000F00D749FF00D659FF00D9927729FB00DBE
:1006A000E11DF91F639FB00DE11DF91FBD01CF01D1
:1006B00011240895A1E21A2EAA1BBB1BFD010DC037
:1006C000AA1FBB1FEE1FFF1FA217B307E407F50702
:1006D00020F0A21BB30BE40BF50B661F771F881FDE
:1006E000991F1A9469F760957095809590959B0174
:0C06F000AC01BD01CF010895F894FFCFCC
:00000001FF
