:100000000C9434020C9446020C9446020C94460262
:100010000C9446020C9446020C9446020C94460240
:100020000C9446020C9446020C94E2030C94460293
:100030000C9446020C9406040C9446020C9446025E
:100040000C9446020C9446020C9446020C94460210
:100050000C9446020C9446020C9446020C94460200
:100060000C9446020C944602FFFF5BEAA7E49FE073
:1000700063DDA4DA3AD80DD611D43CD285D0E9CECE
:1000800064CDF1CB90CA3EC9F9C7BFC691C56CC457
:1000900050C33CC230C12BC02CBF33BE3FBD51BC8E
:1000A00068BB83BAA3B9C6B8EEB719B747B679B576
:1000B000AEB4E5B320B35DB29DB1DFB024B06BAF99
:1000C000B4AEFFAD4BAD9AACEBAB3DAB91AAE7A99B
:1000D0003EA997A8F1A74DA7AAA608A668A5C8A4F7
:1000E0002AA48DA3F1A257A2BDA124A18CA0F59FA3
:1000F0005F9FCA9E369EA29D0F9D7D9CEC9B5C9B44
:10010000CC9A3D9AAE992099939806987A97EF9653
:100110006496D9955095C6943D94B5932C93A59229
:100120001D92979110918A9004907F8FFA8E758E10
:10013000F08D6C8DE88C658CE18B5E8BDB8A588A48
:10014000D6895489D2885088CE874C87CB864986F9
:10015000C8854785C6844584C4834483C38242825C
:10016000C2814181C1804080C07F3F7FBF7E3E7E93
:10017000BE7D3D7DBC7C3C7CBB7B3A7BB97A387ACA
:10018000B7793579B4783278B0772E77AC762A762D
:10019000A8752575A2741F749B73187394721072DE
:1001A0008B7106718170FC6F766FF06E696EE36D16
:1001B0005B6DD46C4B6CC36B3A6BB06A276A9C69FD
:1001C00011698668FA676D67E0665266C3653465D3
:1001D000A46414648363F1625E62CA613661A160E3
:1001E0000B60745FDC5E435EA95D0F5D735CD65B84
:1001F000385B985AF8595659B3580F586957C25630
:1002000019566F55C35415546653B55201524C518B
:100210009550DC4F214F634EA34DE04C1B4C524B8D
:10022000874AB949E74812483A475D467D459844B0
:10023000AF43C142CD41D440D53FD03EC43DB03C98
:10024000943B6F3A41390738C23670350F349C32CF
:1002500017317B2FC42DEF2BF329C6275C259D2258
:10026000611F591BA5150000FFFF9AFC9BFAEEF8D1
:100270006FF70EF6C5F48CF363F245F131F026EF1B
:1002800023EE26ED30EC3FEB53EA6CE989E8AAE770
:10029000CFE6F7E522E550E480E3B4E2E9E121E1CD
:1002A0005BE097DFD6DE16DE57DD9BDCE0DB26DB8E
:1002B0006EDAB7D902D94ED89BD7EAD639D68AD5C5
:1002C000DCD42ED482D3D6D22CD282D1D9D031D084
:1002D0008ACFE3CE3DCE98CDF4CC50CCACCB0ACB7C
:1002E00068CAC6C925C985C8E5C745C7A6C607C621
:1002F00069C5CBC42EC491C3F4C258C2BCC120C1CD
:1003000085C0EABF4FBFB5BE1BBE81BDE7BC4DBCBB
:10031000B4BB1BBB82BAE9B951B9B8B820B888B729
:10032000F0B658B6C0B529B591B4FAB362B3CBB242
:1003300034B29CB105B16EB0D7AF3FAFA8AE11AE2D
:100340007AADE2AC4BACB4AB1CAB85AAEDA955A918
:10035000BEA826A88EA7F6A65EA6C5A52DA594A420
:10036000FBA362A3C9A230A296A1FCA062A0C89F71
:100370002E9F939EF89D5D9DC19C269C899BED9A26
:10038000509AB39916997898DA973B979D96FD9570
:100390005E95BD941D947C93DA9238929691F39079
:1003A0005090AC8F078F628EBD8D168D6F8CC88B71
:1003B000208B778ACE8924897988CD872187748696
:1003C000C68518856884B88307835582A281EE802C
:1003D0003980837FCC7E147E5B7DA17CE57B297B8D
:1003E0006B7AAC79EC782A786777A376DD7515752A
:1003F0004D748273B672E87119714770746F9F6E95
:10040000C86DEE6C136C356B556A73698E68A667A0
:10041000BC66CF65DF64EC63F662FC61FF60FF5F82
:10042000FA5EF15DE55CD35BBD5AA25982585C5718
:100430003156FF54C65386523F51EF4F974E344DBD
:10044000C84B504ACB4839479845E5432042454080
:10045000523E423C103AB7372D356632512FD02BE1
:10046000B2279122551B000011241FBECFEFD8E008
:10047000DEBFCDBF11E0A0E0B1E001C01D92A7300A
:10048000B107E1F70E94C4030C9449040C940000E6
:10049000DF93CF93CDB7DEB728970FB6F894DEBFC2
:1004A0000FBECDBFE82FF0E0EE0FFF1FE859FF4F62
:1004B00085919491A0E0B0E089839A83AB83BC835B
:1004C000609105017091060129813A814B815C811F
:1004D00080E090E00E942A046D837E838F8398875A
:1004E0008D819E81AF81B885CD01AA27BB279093CE
:1004F0000301809302018091020190910301892BF5
:1005000031F481E090E090930301809302012896FA
:100510000FB6F894DEBF0FBECDBFCF91DF91089527
:10052000DF93CF93CDB7DEB728970FB6F894DEBF31
:100530000FBECDBFE82FF0E0EE0FFF1FE859FD4FD3
:1005400085919491A0E0B0E089839A83AB83BC83CA
:10055000609105017091060129813A814B815C818E
:1005600080E090E00E942A046D837E838F839887C9
:100570008D819E81AF81B885CD01AA27BB2790933D
:100580000301809302018091020190910301892B64
:1005900031F481E090E0909303018093020128966A
:1005A0000FB6F894DEBF0FBECDBFCF91DF91089597
:1005B0002091050130910601C9010895809104013F
:1005C000843030F4823020F5813009F059C004C005
:1005D000843009F055C038C08091810080648093D8
:1005E000810080E880938000809382008FEF9FEFEE
:1005F0009093890080938800109285001092840067
:10060000B09A80916F00816080936F0082E049C052
:1006100080E88093800080938200809181008F7BAE
:1006200080938100809186009091870090930601CD
:1006300080930501809102019091030190938900BC
:100640008093880084E02DC0809181008064809335
:100650008100809102019091030190938900809321
:100660008800109285001092840080EC80938000B6
:10067000B09A80916F00816080936F0083E011C019
:1006800080E88093800080938200809181008F7B3E
:10069000809381008FEF9FEF909389008093880073
:1006A00081E0809304010895EFE6F0E080818E7F81
:1006B0008083E1E8F0E080818064808380E880933B
:1006C0008000809382001092040108958FEF9FEFC5
:1006D000909306018093050190930301809302019A
:1006E000109204010E94A3030E947E030E949003C3
:1006F000EFE6F0E080818E7F80830895209828982F
:10070000E1E8F0E080818068808310BE80818064B1
:100710008083B59AEFE6F0E080818062808308955F
:100720001092850010928400A0E8B0E090E89C93BD
:10073000E1E8F0E0808182608083909382008C9178
:1007400080648C930895219A29980895ECE7F0E04D
:10075000808180668083EAE7F0E08081876880831B
:10076000089590917C008F70907F892B80937C00FE
:1007700080917A00806480937A0080917A0086FD6F
:10078000FCCF809179000895CF93DF930E94660398
:10079000789480917C00806680937C0080917A00C0
:1007A000876880937A00C4EFD1E080E00E94B103B3
:1007B0000E9490028CE291E0FE013197F1F70197DF
:1007C000D9F7F3CF1F920F920FB60F9211242F93E8
:1007D0003F934F935F936F937F938F939F93AF93C9
:1007E000BF93EF93FF930E94DE02FF91EF91BF91C1
:1007F000AF919F918F917F916F915F914F913F91B9
:100800002F910F900FBE0F901F9018951F920F926F
:100810000FB60F9211242F933F934F935F936F93D3
:100820007F938F939F93AF93BF93EF93FF930E9418
:100830005403FF91EF91BF91AF919F918F917F9161
:100840006F915F914F913F912F910F900FBE0F903D
:100850001F901895629FD001739FF001829FE00D59
:10086000F11D649FE00DF11D929FF00D839FF00D2F
:10087000749FF00D659FF00D9927729FB00DE11DDB
:10088000F91F639FB00DE11DF91FBD01CF011124B8
:060890000895F894FFCF6B
:00000001FF
